{
  "_format": "hh-sol-artifact-1",
  "contractName": "Bead157CardArt",
  "sourceName": "contracts/Bead157CardArt.sol",
  "abi": [
    {
      "inputs": [
        {
          "internalType": "uint256",
          "name": "cardId",
          "type": "uint256"
        }
      ],
      "name": "meta",
      "outputs": [
        {
          "internalType": "string",
          "name": "",
          "type": "string"
        }
      ],
      "stateMutability": "pure",
      "type": "function"
    },
    {
      "inputs": [
        {
          "internalType": "uint256",
          "name": "cardId",
          "type": "uint256"
        }
      ],
      "name": "render",
      "outputs": [
        {
          "internalType": "string",
          "name": "",
          "type": "string"
        }
      ],
      "stateMutability": "pure",
      "type": "function"
    }
  ],
  "bytecode": "0x6080604052348015600f57600080fd5b506104908061001f6000396000f3fe608060405234801561001057600080fd5b50600436106100365760003560e01c8063c321118c1461003b578063cd5cfdaf14610064575b600080fd5b61004e6100493660046101cc565b610077565b60405161005b9190610209565b60405180910390f35b61004e6100723660046101cc565b6100a8565b6060610082826100c3565b604051602001610092919061023c565b6040516020818303038152906040529050919050565b60606100b3826100c3565b6040516020016100929190610367565b6060816000036100ea5750506040805180820190915260018152600360fc1b602082015290565b6000825b801561011457816100fe816103ab565b925061010d9050600a826103da565b90506100ee565b5060008167ffffffffffffffff811115610130576101306103ee565b6040519080825280601f01601f19166020018201604052801561015a576020820181803683370190505b5090505b83156101c55761016f600183610404565b915061017c600a8561041d565b610187906030610431565b60f81b81838151811061019c5761019c610444565b60200101906001600160f81b031916908160001a9053506101be600a856103da565b935061015e565b9392505050565b6000602082840312156101de57600080fd5b5035919050565b60005b838110156102005781810151838201526020016101e8565b50506000910152565b60208152600082518060208401526102288160408501602087016101e5565b601f01601f19169190910160400192915050565b7f3c73766720786d6c6e733d22687474703a2f2f7777772e77332e6f72672f323081527f30302f737667222077696474683d2232303022206865696768743d22323030226020820152601f60f91b60408201527f3c726563742077696474683d2232303022206865696768743d2232303022206660418201526b34b6361e9111b2b2b291179f60a11b60618201527f3c7465787420783d223130302220793d223130302220666f6e742d73697a653d606d8201527f2232342220746578742d616e63686f723d226d6964646c65222066696c6c3d22608d8201526511999999911f60d11b60ad8201526000825161033a8160b38501602087016101e5565b661e17ba32bc3a1f60c91b60b3939091019283015250651e17b9bb339f60d11b60ba82015260c001919050565b6543617264202360d01b8152600082516103888160068501602087016101e5565b9190910160060192915050565b634e487b7160e01b600052601160045260246000fd5b6000600182016103bd576103bd610395565b5060010190565b634e487b7160e01b600052601260045260246000fd5b6000826103e9576103e96103c4565b500490565b634e487b7160e01b600052604160045260246000fd5b8181038181111561041757610417610395565b92915050565b60008261042c5761042c6103c4565b500690565b8082018082111561041757610417610395565b634e487b7160e01b600052603260045260246000fdfea2646970667358221220afb5b0440c8deec032583326ea286d1c8ed31ac904241ad14a9a8138a7943c0664736f6c634300081e0033",
  "linkReferences": {},
  "deployedLinkReferences": {}
}