{
  "_format": "hh-sol-artifact-1",
  "contractName": "Bead157Card",
  "sourceName": "contracts/Bead157Card.sol",
  "abi": [
    {
      "inputs": [
        {
          "internalType": "address",
          "name": "royaltyReceiver_",
          "type": "address"
        },
        {
          "internalType": "uint96",
          "name": "royaltyFeeNumerator_",
          "type": "uint96"
        },
        {
          "internalType": "address",
          "name": "artContract_",
          "type": "address"
        }
      ],
      "stateMutability": "nonpayable",
      "type": "constructor"
    },
    {
      "inputs": [],
      "name": "ApprovalCallerNotOwnerNorApproved",
      "type": "error"
    },
    {
      "inputs": [],
      "name": "ApprovalQueryForNonexistentToken",
      "type": "error"
    },
    {
      "inputs": [],
      "name": "BalanceQueryForZeroAddress",
      "type": "error"
    },
    {
      "inputs": [],
      "name": "CreatorTokenBase__InvalidTransferValidatorContract",
      "type": "error"
    },
    {
      "inputs": [
        {
          "internalType": "uint256",
          "name": "numerator",
          "type": "uint256"
        },
        {
          "internalType": "uint256",
          "name": "denominator",
          "type": "uint256"
        }
      ],
      "name": "ERC2981InvalidDefaultRoyalty",
      "type": "error"
    },
    {
      "inputs": [
        {
          "internalType": "address",
          "name": "receiver",
          "type": "address"
        }
      ],
      "name": "ERC2981InvalidDefaultRoyaltyReceiver",
      "type": "error"
    },
    {
      "inputs": [
        {
          "internalType": "uint256",
          "name": "tokenId",
          "type": "uint256"
        },
        {
          "internalType": "uint256",
          "name": "numerator",
          "type": "uint256"
        },
        {
          "internalType": "uint256",
          "name": "denominator",
          "type": "uint256"
        }
      ],
      "name": "ERC2981InvalidTokenRoyalty",
      "type": "error"
    },
    {
      "inputs": [
        {
          "internalType": "uint256",
          "name": "tokenId",
          "type": "uint256"
        },
        {
          "internalType": "address",
          "name": "receiver",
          "type": "address"
        }
      ],
      "name": "ERC2981InvalidTokenRoyaltyReceiver",
      "type": "error"
    },
    {
      "inputs": [],
      "name": "MintERC2309QuantityExceedsLimit",
      "type": "error"
    },
    {
      "inputs": [],
      "name": "MintToZeroAddress",
      "type": "error"
    },
    {
      "inputs": [],
      "name": "MintZeroQuantity",
      "type": "error"
    },
    {
      "inputs": [],
      "name": "NotCompatibleWithSpotMints",
      "type": "error"
    },
    {
      "inputs": [
        {
          "internalType": "address",
          "name": "owner",
          "type": "address"
        }
      ],
      "name": "OwnableInvalidOwner",
      "type": "error"
    },
    {
      "inputs": [
        {
          "internalType": "address",
          "name": "account",
          "type": "address"
        }
      ],
      "name": "OwnableUnauthorizedAccount",
      "type": "error"
    },
    {
      "inputs": [],
      "name": "OwnerQueryForNonexistentToken",
      "type": "error"
    },
    {
      "inputs": [],
      "name": "OwnershipNotInitializedForExtraData",
      "type": "error"
    },
    {
      "inputs": [],
      "name": "ReentrancyGuardReentrantCall",
      "type": "error"
    },
    {
      "inputs": [],
      "name": "SequentialMintExceedsLimit",
      "type": "error"
    },
    {
      "inputs": [],
      "name": "SequentialUpToTooSmall",
      "type": "error"
    },
    {
      "inputs": [],
      "name": "ShouldNotMintToBurnAddress",
      "type": "error"
    },
    {
      "inputs": [],
      "name": "SpotMintTokenIdTooSmall",
      "type": "error"
    },
    {
      "inputs": [],
      "name": "TokenAlreadyExists",
      "type": "error"
    },
    {
      "inputs": [],
      "name": "TransferCallerNotOwnerNorApproved",
      "type": "error"
    },
    {
      "inputs": [],
      "name": "TransferFromIncorrectOwner",
      "type": "error"
    },
    {
      "inputs": [],
      "name": "TransferToNonERC721ReceiverImplementer",
      "type": "error"
    },
    {
      "inputs": [],
      "name": "TransferToZeroAddress",
      "type": "error"
    },
    {
      "inputs": [],
      "name": "URIQueryForNonexistentToken",
      "type": "error"
    },
    {
      "anonymous": false,
      "inputs": [
        {
          "indexed": true,
          "internalType": "address",
          "name": "owner",
          "type": "address"
        },
        {
          "indexed": true,
          "internalType": "address",
          "name": "approved",
          "type": "address"
        },
        {
          "indexed": true,
          "internalType": "uint256",
          "name": "tokenId",
          "type": "uint256"
        }
      ],
      "name": "Approval",
      "type": "event"
    },
    {
      "anonymous": false,
      "inputs": [
        {
          "indexed": true,
          "internalType": "address",
          "name": "owner",
          "type": "address"
        },
        {
          "indexed": true,
          "internalType": "address",
          "name": "operator",
          "type": "address"
        },
        {
          "indexed": false,
          "internalType": "bool",
          "name": "approved",
          "type": "bool"
        }
      ],
      "name": "ApprovalForAll",
      "type": "event"
    },
    {
      "anonymous": false,
      "inputs": [
        {
          "indexed": false,
          "internalType": "bool",
          "name": "autoApproved",
          "type": "bool"
        }
      ],
      "name": "AutomaticApprovalOfTransferValidatorSet",
      "type": "event"
    },
    {
      "anonymous": false,
      "inputs": [
        {
          "indexed": true,
          "internalType": "uint256",
          "name": "fromTokenId",
          "type": "uint256"
        },
        {
          "indexed": false,
          "internalType": "uint256",
          "name": "toTokenId",
          "type": "uint256"
        },
        {
          "indexed": true,
          "internalType": "address",
          "name": "from",
          "type": "address"
        },
        {
          "indexed": true,
          "internalType": "address",
          "name": "to",
          "type": "address"
        }
      ],
      "name": "ConsecutiveTransfer",
      "type": "event"
    },
    {
      "anonymous": false,
      "inputs": [
        {
          "indexed": true,
          "internalType": "address",
          "name": "receiver",
          "type": "address"
        },
        {
          "indexed": false,
          "internalType": "uint96",
          "name": "feeNumerator",
          "type": "uint96"
        }
      ],
      "name": "DefaultRoyaltySet",
      "type": "event"
    },
    {
      "anonymous": false,
      "inputs": [
        {
          "indexed": true,
          "internalType": "address",
          "name": "previousOwner",
          "type": "address"
        },
        {
          "indexed": true,
          "internalType": "address",
          "name": "newOwner",
          "type": "address"
        }
      ],
      "name": "OwnershipTransferred",
      "type": "event"
    },
    {
      "anonymous": false,
      "inputs": [
        {
          "indexed": true,
          "internalType": "uint256",
          "name": "tokenId",
          "type": "uint256"
        },
        {
          "indexed": true,
          "internalType": "address",
          "name": "receiver",
          "type": "address"
        },
        {
          "indexed": false,
          "internalType": "uint96",
          "name": "feeNumerator",
          "type": "uint96"
        }
      ],
      "name": "TokenRoyaltySet",
      "type": "event"
    },
    {
      "anonymous": false,
      "inputs": [
        {
          "indexed": true,
          "internalType": "address",
          "name": "from",
          "type": "address"
        },
        {
          "indexed": true,
          "internalType": "address",
          "name": "to",
          "type": "address"
        },
        {
          "indexed": true,
          "internalType": "uint256",
          "name": "tokenId",
          "type": "uint256"
        }
      ],
      "name": "Transfer",
      "type": "event"
    },
    {
      "anonymous": false,
      "inputs": [
        {
          "indexed": false,
          "internalType": "address",
          "name": "oldValidator",
          "type": "address"
        },
        {
          "indexed": false,
          "internalType": "address",
          "name": "newValidator",
          "type": "address"
        }
      ],
      "name": "TransferValidatorUpdated",
      "type": "event"
    },
    {
      "inputs": [],
      "name": "DEFAULT_TRANSFER_VALIDATOR",
      "outputs": [
        {
          "internalType": "address",
          "name": "",
          "type": "address"
        }
      ],
      "stateMutability": "view",
      "type": "function"
    },
    {
      "inputs": [
        {
          "internalType": "address",
          "name": "to",
          "type": "address"
        },
        {
          "internalType": "uint256",
          "name": "tokenId",
          "type": "uint256"
        }
      ],
      "name": "approve",
      "outputs": [],
      "stateMutability": "payable",
      "type": "function"
    },
    {
      "inputs": [],
      "name": "art",
      "outputs": [
        {
          "internalType": "contract IArt",
          "name": "",
          "type": "address"
        }
      ],
      "stateMutability": "view",
      "type": "function"
    },
    {
      "inputs": [],
      "name": "autoApproveTransfersFromValidator",
      "outputs": [
        {
          "internalType": "bool",
          "name": "",
          "type": "bool"
        }
      ],
      "stateMutability": "view",
      "type": "function"
    },
    {
      "inputs": [
        {
          "internalType": "address",
          "name": "owner",
          "type": "address"
        }
      ],
      "name": "balanceOf",
      "outputs": [
        {
          "internalType": "uint256",
          "name": "",
          "type": "uint256"
        }
      ],
      "stateMutability": "view",
      "type": "function"
    },
    {
      "inputs": [
        {
          "internalType": "uint256",
          "name": "",
          "type": "uint256"
        }
      ],
      "name": "cardIdOf",
      "outputs": [
        {
          "internalType": "uint256",
          "name": "",
          "type": "uint256"
        }
      ],
      "stateMutability": "view",
      "type": "function"
    },
    {
      "inputs": [
        {
          "internalType": "uint256",
          "name": "tokenId",
          "type": "uint256"
        }
      ],
      "name": "getApproved",
      "outputs": [
        {
          "internalType": "address",
          "name": "",
          "type": "address"
        }
      ],
      "stateMutability": "view",
      "type": "function"
    },
    {
      "inputs": [],
      "name": "getTransferValidationFunction",
      "outputs": [
        {
          "internalType": "bytes4",
          "name": "functionSignature",
          "type": "bytes4"
        },
        {
          "internalType": "bool",
          "name": "isViewFunction",
          "type": "bool"
        }
      ],
      "stateMutability": "pure",
      "type": "function"
    },
    {
      "inputs": [],
      "name": "getTransferValidator",
      "outputs": [
        {
          "internalType": "address",
          "name": "validator",
          "type": "address"
        }
      ],
      "stateMutability": "view",
      "type": "function"
    },
    {
      "inputs": [
        {
          "internalType": "address",
          "name": "owner",
          "type": "address"
        },
        {
          "internalType": "address",
          "name": "operator",
          "type": "address"
        }
      ],
      "name": "isApprovedForAll",
      "outputs": [
        {
          "internalType": "bool",
          "name": "isApproved",
          "type": "bool"
        }
      ],
      "stateMutability": "view",
      "type": "function"
    },
    {
      "inputs": [
        {
          "internalType": "address",
          "name": "to",
          "type": "address"
        }
      ],
      "name": "mintFiveCards",
      "outputs": [],
      "stateMutability": "nonpayable",
      "type": "function"
    },
    {
      "inputs": [],
      "name": "name",
      "outputs": [
        {
          "internalType": "string",
          "name": "",
          "type": "string"
        }
      ],
      "stateMutability": "view",
      "type": "function"
    },
    {
      "inputs": [],
      "name": "nextTokenId",
      "outputs": [
        {
          "internalType": "uint256",
          "name": "",
          "type": "uint256"
        }
      ],
      "stateMutability": "view",
      "type": "function"
    },
    {
      "inputs": [],
      "name": "owner",
      "outputs": [
        {
          "internalType": "address",
          "name": "",
          "type": "address"
        }
      ],
      "stateMutability": "view",
      "type": "function"
    },
    {
      "inputs": [
        {
          "internalType": "uint256",
          "name": "tokenId",
          "type": "uint256"
        }
      ],
      "name": "ownerOf",
      "outputs": [
        {
          "internalType": "address",
          "name": "",
          "type": "address"
        }
      ],
      "stateMutability": "view",
      "type": "function"
    },
    {
      "inputs": [],
      "name": "packContract",
      "outputs": [
        {
          "internalType": "address",
          "name": "",
          "type": "address"
        }
      ],
      "stateMutability": "view",
      "type": "function"
    },
    {
      "inputs": [],
      "name": "renounceOwnership",
      "outputs": [],
      "stateMutability": "nonpayable",
      "type": "function"
    },
    {
      "inputs": [
        {
          "internalType": "uint256",
          "name": "tokenId",
          "type": "uint256"
        },
        {
          "internalType": "uint256",
          "name": "salePrice",
          "type": "uint256"
        }
      ],
      "name": "royaltyInfo",
      "outputs": [
        {
          "internalType": "address",
          "name": "receiver",
          "type": "address"
        },
        {
          "internalType": "uint256",
          "name": "amount",
          "type": "uint256"
        }
      ],
      "stateMutability": "view",
      "type": "function"
    },
    {
      "inputs": [
        {
          "internalType": "address",
          "name": "from",
          "type": "address"
        },
        {
          "internalType": "address",
          "name": "to",
          "type": "address"
        },
        {
          "internalType": "uint256",
          "name": "tokenId",
          "type": "uint256"
        }
      ],
      "name": "safeTransferFrom",
      "outputs": [],
      "stateMutability": "payable",
      "type": "function"
    },
    {
      "inputs": [
        {
          "internalType": "address",
          "name": "from",
          "type": "address"
        },
        {
          "internalType": "address",
          "name": "to",
          "type": "address"
        },
        {
          "internalType": "uint256",
          "name": "tokenId",
          "type": "uint256"
        },
        {
          "internalType": "bytes",
          "name": "_data",
          "type": "bytes"
        }
      ],
      "name": "safeTransferFrom",
      "outputs": [],
      "stateMutability": "payable",
      "type": "function"
    },
    {
      "inputs": [
        {
          "internalType": "address",
          "name": "operator",
          "type": "address"
        },
        {
          "internalType": "bool",
          "name": "approved",
          "type": "bool"
        }
      ],
      "name": "setApprovalForAll",
      "outputs": [],
      "stateMutability": "nonpayable",
      "type": "function"
    },
    {
      "inputs": [
        {
          "internalType": "bool",
          "name": "autoApprove",
          "type": "bool"
        }
      ],
      "name": "setAutomaticApprovalOfTransfersFromValidator",
      "outputs": [],
      "stateMutability": "nonpayable",
      "type": "function"
    },
    {
      "inputs": [
        {
          "internalType": "address",
          "name": "_pack",
          "type": "address"
        }
      ],
      "name": "setPackContract",
      "outputs": [],
      "stateMutability": "nonpayable",
      "type": "function"
    },
    {
      "inputs": [
        {
          "internalType": "address",
          "name": "transferValidator_",
          "type": "address"
        }
      ],
      "name": "setTransferValidator",
      "outputs": [],
      "stateMutability": "nonpayable",
      "type": "function"
    },
    {
      "inputs": [
        {
          "internalType": "bytes4",
          "name": "interfaceId",
          "type": "bytes4"
        }
      ],
      "name": "supportsInterface",
      "outputs": [
        {
          "internalType": "bool",
          "name": "",
          "type": "bool"
        }
      ],
      "stateMutability": "view",
      "type": "function"
    },
    {
      "inputs": [],
      "name": "symbol",
      "outputs": [
        {
          "internalType": "string",
          "name": "",
          "type": "string"
        }
      ],
      "stateMutability": "view",
      "type": "function"
    },
    {
      "inputs": [
        {
          "internalType": "uint256",
          "name": "tokenId",
          "type": "uint256"
        }
      ],
      "name": "tokenURI",
      "outputs": [
        {
          "internalType": "string",
          "name": "",
          "type": "string"
        }
      ],
      "stateMutability": "view",
      "type": "function"
    },
    {
      "inputs": [],
      "name": "totalSupply",
      "outputs": [
        {
          "internalType": "uint256",
          "name": "result",
          "type": "uint256"
        }
      ],
      "stateMutability": "view",
      "type": "function"
    },
    {
      "inputs": [
        {
          "internalType": "address",
          "name": "from",
          "type": "address"
        },
        {
          "internalType": "address",
          "name": "to",
          "type": "address"
        },
        {
          "internalType": "uint256",
          "name": "tokenId",
          "type": "uint256"
        }
      ],
      "name": "transferFrom",
      "outputs": [],
      "stateMutability": "payable",
      "type": "function"
    },
    {
      "inputs": [
        {
          "internalType": "address",
          "name": "newOwner",
          "type": "address"
        }
      ],
      "name": "transferOwnership",
      "outputs": [],
      "stateMutability": "nonpayable",
      "type": "function"
    }
  ],
  "bytecode": "0x608060405234801561001057600080fd5b5060405161257238038061257283398101604081905261002f91610365565b8282336040518060400160405280600b81526020016a109958590c4d4dd0d85c9960aa1b81525060405180604001604052806005815260200164423135374360d81b815250818181600290816100859190610455565b5060036100928282610455565b505060008055506100a1610132565b6100be73721c008fdff27bf06e7e123956e2fe03b63342e3610181565b50506001600160a01b0381166100ef57604051631e4fbdf760e01b8152600060048201526024015b60405180910390fd5b6100f8816101ff565b506101038282610251565b50506001600d55600f80546001600160a01b0319166001600160a01b0392909216919091179055506105139050565b604080516000815273721c008fdff27bf06e7e123956e2fe03b63342e360208201527fcc5dc080ff977b3c3a211fa63ab74f90f658f5ba9d3236e92c8f59570f442aac910160405180910390a1565b6001600160a01b038116156101fc57803b80156101fa576040805163fb2de5d760e01b81523060048201526102d1602482015290516001600160a01b0384169163fb2de5d791604480830192600092919082900301818387803b1580156101e757600080fd5b505af19250505080156101f8575060015b505b505b50565b600a80546001600160a01b038381166001600160a01b0319831681179093556040519116919082907f8be0079c531659141344cd1fd0a4f28419497f9722a3daafe3b4186f6b6457e090600090a35050565b61025b82826102a6565b6040516001600160601b03821681526001600160a01b038316907f8a8bae378cb731c5c40b632330c6836c2f916f48edb967699c86736f9a6a76ef9060200160405180910390a25050565b6127106001600160601b0382168110156102e557604051636f483d0960e01b81526001600160601b0383166004820152602481018290526044016100e6565b6001600160a01b03831661030f57604051635b6cc80560e11b8152600060048201526024016100e6565b50604080518082019091526001600160a01b039092168083526001600160601b039091166020909201829052600160a01b90910217600b55565b80516001600160a01b038116811461036057600080fd5b919050565b60008060006060848603121561037a57600080fd5b61038384610349565b60208501519093506001600160601b03811681146103a057600080fd5b91506103ae60408501610349565b90509250925092565b634e487b7160e01b600052604160045260246000fd5b600181811c908216806103e157607f821691505b60208210810361040157634e487b7160e01b600052602260045260246000fd5b50919050565b601f8211156101f857806000526020600020601f840160051c8101602085101561042e5750805b601f840160051c820191505b8181101561044e576000815560010161043a565b5050505050565b81516001600160401b0381111561046e5761046e6103b7565b6104828161047c84546103cd565b84610407565b6020601f8211600181146104b6576000831561049e5750848201515b600019600385901b1c1916600184901b17845561044e565b600084815260208120601f198516915b828110156104e657878501518255602094850194600190920191016104c6565b50848210156105045786840151600019600387901b60f8161c191681555b50505050600190811b01905550565b612050806105226000396000f3fe6080604052600436106101cd5760003560e01c80636352211e116100f7578063a22cb46511610095578063dc71297511610064578063dc71297514610522578063e3f5d2ba14610542578063e985e9c514610562578063f2fde38b1461058257600080fd5b8063a22cb465146104af578063a9fc664e146104cf578063b88d4fde146104ef578063c87b56dd1461050257600080fd5b806375794a3c116100d157806375794a3c146104465780638da5cb5b1461045c57806395d89b411461047a5780639e05d2401461048f57600080fd5b80636352211e146103f157806370a0823114610411578063715018a61461043157600080fd5b806318160ddd1161016f5780633a20a3541161013e5780633a20a3541461037057806342842e0e146103905780635535f434146103a35780636221d13c146103d057600080fd5b806318160ddd146102db57806323b872dd146102fe5780632a55205a14610311578063301bd28e1461035057600080fd5b8063081812fc116101ab578063081812fc14610269578063095ea7b314610289578063098144d41461029e5780630d705df6146102b357600080fd5b806301463546146101d257806301ffc9a71461021757806306fdde0314610247575b600080fd5b3480156101de57600080fd5b506101fa73721c008fdff27bf06e7e123956e2fe03b63342e381565b6040516001600160a01b0390911681526020015b60405180910390f35b34801561022357600080fd5b5061023761023236600461198c565b6105a2565b604051901515815260200161020e565b34801561025357600080fd5b5061025c6105b3565b60405161020e91906119f9565b34801561027557600080fd5b506101fa610284366004611a0c565b610645565b61029c610297366004611a3c565b610680565b005b3480156102aa57600080fd5b506101fa610690565b3480156102bf57600080fd5b506040805163657711f560e11b8152600160208201520161020e565b3480156102e757600080fd5b50600154600054035b60405190815260200161020e565b61029c61030c366004611a66565b6106ca565b34801561031d57600080fd5b5061033161032c366004611aa3565b610865565b604080516001600160a01b03909316835260208301919091520161020e565b34801561035c57600080fd5b50600f546101fa906001600160a01b031681565b34801561037c57600080fd5b5061029c61038b366004611ac5565b6108ea565b61029c61039e366004611a66565b610914565b3480156103af57600080fd5b506102f06103be366004611a0c565b60126020526000908152604090205481565b3480156103dc57600080fd5b5060095461023790600160a81b900460ff1681565b3480156103fd57600080fd5b506101fa61040c366004611a0c565b610934565b34801561041d57600080fd5b506102f061042c366004611ac5565b61093f565b34801561043d57600080fd5b5061029c610985565b34801561045257600080fd5b506102f060105481565b34801561046857600080fd5b50600a546001600160a01b03166101fa565b34801561048657600080fd5b5061025c610999565b34801561049b57600080fd5b5061029c6104aa366004611af0565b6109a8565b3480156104bb57600080fd5b5061029c6104ca366004611b0b565b610a08565b3480156104db57600080fd5b5061029c6104ea366004611ac5565b610a81565b61029c6104fd366004611bad565b610b3a565b34801561050e57600080fd5b5061025c61051d366004611a0c565b610b7b565b34801561052e57600080fd5b5061029c61053d366004611ac5565b610d54565b34801561054e57600080fd5b50600e546101fa906001600160a01b031681565b34801561056e57600080fd5b5061023761057d366004611c58565b610dd2565b34801561058e57600080fd5b5061029c61059d366004611ac5565b610e36565b60006105ad82610e71565b92915050565b6060600280546105c290611c82565b80601f01602080910402602001604051908101604052809291908181526020018280546105ee90611c82565b801561063b5780601f106106105761010080835404028352916020019161063b565b820191906000526020600020905b81548152906001019060200180831161061e57829003601f168201915b5050505050905090565b600061065082610ea6565b610664576106646333d1c03960e21b610eeb565b506000908152600660205260409020546001600160a01b031690565b61068c82826001610ef5565b5050565b60095461010090046001600160a01b0316806106c75760095460ff166106c7575073721c008fdff27bf06e7e123956e2fe03b63342e35b90565b60006106d582610f98565b6001600160a01b0394851694909150811684146106fb576106fb62a1148160e81b610eeb565b60008281526006602052604090208054338082146001600160a01b0388169091141761073f5761072b8633610dd2565b61073f5761073f632ce44b5f60e11b610eeb565b61074c868686600161102e565b801561075757600082555b6001600160a01b038087166000908152600560205260408082208054600019019055918716815220805460010190556107b08561079588828761105c565b600160e11b174260a01b176001600160a01b03919091161790565b600085815260046020526040812091909155600160e11b84169003610805576001840160008181526004602052604081205490036108035760005481146108035760008181526004602052604090208490555b505b6001600160a01b0385168481887fddf252ad1be2c89b69c2b068fc378daa952ba7f163c4a11628f55a4df523b3ef600080a48060000361084f5761084f633a954ecd60e21b610eeb565b61085c8787876001611066565b50505050505050565b6000828152600c6020526040812080548291906001600160a01b03811690600160a01b90046001600160601b0316816108b9575050600b546001600160a01b03811690600160a01b90046001600160601b03165b60006127106108d16001600160601b03841689611cd2565b6108db9190611cff565b92989297509195505050505050565b6108f261108d565b600e80546001600160a01b0319166001600160a01b0392909216919091179055565b61092f83838360405180602001604052806000815250610b3a565b505050565b60006105ad82610f98565b60006001600160a01b03821661095f5761095f6323d3ad8160e21b610eeb565b506001600160a01b031660009081526005602052604090205467ffffffffffffffff1690565b61098d61108d565b61099760006110ba565b565b6060600380546105c290611c82565b6109b061110c565b60098054821515600160a81b0260ff60a81b199091161790556040517f6787c7f9a80aa0f5ceddab2c54f1f5169c0b88e75dd5e19d5e858a64144c7dbc906109fd90831515815260200190565b60405180910390a150565b3360008181526007602090815260408083206001600160a01b0387168085529252909120805460ff1916841515179055906001600160a01b03167f17307eab39ab6107e8899845ad3d59bd9653f200f220920489ca2b5937696c3183604051610a75911515815260200190565b60405180910390a35050565b610a8961110c565b6001600160a01b038116803b15159015801590610aa4575080155b15610ac2576040516332483afb60e01b815260040160405180910390fd5b7fcc5dc080ff977b3c3a211fa63ab74f90f658f5ba9d3236e92c8f59570f442aac610aeb610690565b604080516001600160a01b03928316815291851660208301520160405180910390a1600980546001600160a01b038416610100026001600160a81b031990911617600117905561068c82611114565b610b458484846106ca565b6001600160a01b0383163b15610b7557610b6184848484611194565b610b7557610b756368d2bf6b60e11b610eeb565b50505050565b6060610b8682610ea6565b610bce5760405162461bcd60e51b8152602060048201526014602482015273151bdad95b88191bd95cc81b9bdd08195e1a5cdd60621b60448201526064015b60405180910390fd5b60008281526012602052604080822054600f5491516330c8446360e21b815260048101829052909291610c5a916001600160a01b039091169063c321118c90602401600060405180830381865afa158015610c2d573d6000803e3d6000fd5b505050506040513d6000823e601f3d908101601f19168201604052610c559190810190611d13565b611276565b90506000610c678561129c565b604051602001610c779190611da6565b60408051808303601f1901815290829052600f5463cd5cfdaf60e01b8352600483018690529092506000916001600160a01b039091169063cd5cfdaf90602401600060405180830381865afa158015610cd4573d6000803e3d6000fd5b505050506040513d6000823e601f3d908101601f19168201604052610cfc9190810190611d13565b9050610d2a828483604051602001610d1693929190611dd4565b604051602081830303815290604052611276565b604051602001610d3a9190611eee565b604051602081830303815290604052945050505050919050565b600e546001600160a01b03163314610d9f5760405162461bcd60e51b815260206004820152600e60248201526d139bdd08185d5d1a1bdc9a5e995960921b6044820152606401610bc5565b610da761132f565b60005b6005811015610dc457610dbc82611359565b600101610daa565b50610dcf6001600d55565b50565b6001600160a01b0382811660009081526007602090815260408083209385168352929052205460ff16806105ad57600954600160a81b900460ff16156105ad57610e1a610690565b6001600160a01b0316826001600160a01b031614905092915050565b610e3e61108d565b6001600160a01b038116610e6857604051631e4fbdf760e01b815260006004820152602401610bc5565b610dcf816110ba565b60006001600160e01b0319821663152a902d60e11b14806105ad57506301ffc9a760e01b6001600160e01b03198316146105ad565b60008054821015610ee65760005b5060008281526004602052604081205490819003610edc57610ed583611f33565b9250610eb4565b600160e01b161590505b919050565b8060005260046000fd5b6000610f0083610934565b9050818015610f185750336001600160a01b03821614155b15610f3b57610f278133610dd2565b610f3b57610f3b6367d9dca160e11b610eeb565b60008381526006602052604080822080546001600160a01b0319166001600160a01b0388811691821790925591518693918516917f8c5be1e5ebec7d5bd14f71427d1e84f3dd0314c0f7b2291e5b200ac8c7c3b92591a450505050565b6000818152600460205260409020548060000361100b576000548210610fc857610fc8636f96cda160e11b610eeb565b5b50600019016000818152600460205260409020548015610fc957600160e01b8116600003610ff657919050565b611006636f96cda160e11b610eeb565b610fc9565b600160e01b811660000361101e57919050565b610ee6636f96cda160e11b610eeb565b60005b818110156110555761104d85856110488487611f4a565b611469565b600101611031565b5050505050565b60005b9392505050565b60005b818110156110555761108585856110808487611f4a565b6114bf565b600101611069565b600a546001600160a01b031633146109975760405163118cdaa760e01b8152336004820152602401610bc5565b600a80546001600160a01b038381166001600160a01b0319831681179093556040519116919082907f8be0079c531659141344cd1fd0a4f28419497f9722a3daafe3b4186f6b6457e090600090a35050565b61099761108d565b6001600160a01b03811615610dcf57803b801561068c576040805163fb2de5d760e01b81523060048201526102d1602482015290516001600160a01b0384169163fb2de5d791604480830192600092919082900301818387803b15801561117a57600080fd5b505af192505050801561118b575060015b1561068c575050565b604051630a85bd0160e11b81526000906001600160a01b0385169063150b7a02906111c9903390899088908890600401611f5d565b6020604051808303816000875af1925050508015611204575060408051601f3d908101601f1916820190925261120191810190611f90565b60015b611259573d808015611232576040519150601f19603f3d011682016040523d82523d6000602084013e611237565b606091505b508051600003611251576112516368d2bf6b60e11b610eeb565b805181602001fd5b6001600160e01b031916630a85bd0160e11b149050949350505050565b60606105ad82604051806060016040528060408152602001611fdb604091396001611507565b606060006112a983611687565b600101905060008167ffffffffffffffff8111156112c9576112c9611b3e565b6040519080825280601f01601f1916602001820160405280156112f3576020820181803683370190505b5090508181016020015b600019016f181899199a1a9b1b9c1cb0b131b232b360811b600a86061a8153600a85049450846112fd57509392505050565b6002600d540361135257604051633ee5aeb560e01b815260040160405180910390fd5b6002600d55565b600061271042836011600081548092919061137390611fad565b919050556040516020016113ac9392919092835260609190911b6bffffffffffffffffffffffff19166020830152603482015260540190565b6040516020818303038152906040528051906020012060001c6113cf9190611fc6565b905060006113888210156113fa576113e8603283611fc6565b6113f3906001611f4a565b9050611433565b61251c82101561141a5761140f605f83611fc6565b6113f3906033611f4a565b611425600a83611fc6565b611430906092611f4a565b90505b6010805490600061144383611fad565b919050555061145383600161175f565b6010546000908152601260205260409020555050565b6001600160a01b0383811615908316158180156114835750805b156114a157604051635cbd944160e01b815260040160405180910390fd5b81156114ad575b611055565b806114a8576110553386868634611779565b6001600160a01b0383811615908316158180156114d95750805b156114f757604051635cbd944160e01b815260040160405180910390fd5b816114a85780156114a8576114a8565b60608351600003611527575060408051602081019091526000815261105f565b6000826115585760038551600461153e9190611cd2565b611549906002611f4a565b6115539190611cff565b61157d565b6003855160026115689190611f4a565b6115729190611cff565b61157d906004611cd2565b905060008167ffffffffffffffff81111561159a5761159a611b3e565b6040519080825280601f01601f1916602001820160405280156115c4576020820181803683370190505b50905060018501602082018788518901602081018051600082525b8284101561163a576003840193508351603f8160121c168701518653600186019550603f81600c1c168701518653600186019550603f8160061c168701518653600186019550603f81168701518653506001850194506115df565b90525050851561167b5760038851066001811461165e576002811461167157611679565b603d6001830353603d6002830353611679565b603d60018303535b505b50909695505050505050565b60008072184f03e93ff9f4daa797ed6e38ed64bf6a1f0160401b83106116c65772184f03e93ff9f4daa797ed6e38ed64bf6a1f0160401b830492506040015b6d04ee2d6d415b85acef810000000083106116f2576d04ee2d6d415b85acef8100000000830492506020015b662386f26fc10000831061171057662386f26fc10000830492506010015b6305f5e1008310611728576305f5e100830492506008015b612710831061173c57612710830492506004015b6064831061174e576064830492506002015b600a83106105ad5760010192915050565b61068c828260405180602001604052806000815250611823565b6000611783610690565b90506001600160a01b0381161561181b576001600160a01b03811633036117aa5750611055565b60405163657711f560e11b81526001600160a01b038781166004830152868116602483015285811660448301526064820185905282169063caee23ea9060840160006040518083038186803b15801561180257600080fd5b505afa158015611816573d6000803e3d6000fd5b505050505b505050505050565b61182d8383611880565b6001600160a01b0383163b1561092f576000548281035b6118576000868380600101945086611194565b61186b5761186b6368d2bf6b60e11b610eeb565b81811061184457816000541461105557600080fd5b600080549082900361189c5761189c63b562e8dd60e01b610eeb565b6118a9600084838561102e565b6118d7836118ba600086600061105c565b6001851460e11b174260a01b176001600160a01b03919091161790565b6000828152600460209081526040808320939093556001600160a01b0386168083526005909152918120805468010000000000000001860201905581900361192857611928622e076360e81b610eeb565b818301825b808360007fddf252ad1be2c89b69c2b068fc378daa952ba7f163c4a11628f55a4df523b3ef600080a481816001019150810361192d5750600090815561092f9150848385611066565b6001600160e01b031981168114610dcf57600080fd5b60006020828403121561199e57600080fd5b813561105f81611976565b60005b838110156119c45781810151838201526020016119ac565b50506000910152565b600081518084526119e58160208601602086016119a9565b601f01601f19169290920160200192915050565b60208152600061105f60208301846119cd565b600060208284031215611a1e57600080fd5b5035919050565b80356001600160a01b0381168114610ee657600080fd5b60008060408385031215611a4f57600080fd5b611a5883611a25565b946020939093013593505050565b600080600060608486031215611a7b57600080fd5b611a8484611a25565b9250611a9260208501611a25565b929592945050506040919091013590565b60008060408385031215611ab657600080fd5b50508035926020909101359150565b600060208284031215611ad757600080fd5b61105f82611a25565b80358015158114610ee657600080fd5b600060208284031215611b0257600080fd5b61105f82611ae0565b60008060408385031215611b1e57600080fd5b611b2783611a25565b9150611b3560208401611ae0565b90509250929050565b634e487b7160e01b600052604160045260246000fd5b604051601f8201601f1916810167ffffffffffffffff81118282101715611b7d57611b7d611b3e565b604052919050565b600067ffffffffffffffff821115611b9f57611b9f611b3e565b50601f01601f191660200190565b60008060008060808587031215611bc357600080fd5b611bcc85611a25565b9350611bda60208601611a25565b925060408501359150606085013567ffffffffffffffff811115611bfd57600080fd5b8501601f81018713611c0e57600080fd5b8035611c21611c1c82611b85565b611b54565b818152886020838501011115611c3657600080fd5b8160208401602083013760006020838301015280935050505092959194509250565b60008060408385031215611c6b57600080fd5b611c7483611a25565b9150611b3560208401611a25565b600181811c90821680611c9657607f821691505b602082108103611cb657634e487b7160e01b600052602260045260246000fd5b50919050565b634e487b7160e01b600052601160045260246000fd5b80820281158282048414176105ad576105ad611cbc565b634e487b7160e01b600052601260045260246000fd5b600082611d0e57611d0e611ce9565b500490565b600060208284031215611d2557600080fd5b815167ffffffffffffffff811115611d3c57600080fd5b8201601f81018413611d4d57600080fd5b8051611d5b611c1c82611b85565b818152856020838501011115611d7057600080fd5b611d818260208301602086016119a9565b95945050505050565b60008151611d9c8185602086016119a9565b9290920192915050565b6542656164202360d01b815260008251611dc78160068501602087016119a9565b9190910160060192915050565b683d913730b6b2911d1160b91b81528351600090611df98160098501602089016119a9565b7f222c20226465736372697074696f6e223a224265616431353743617264206f6e6009918401918201526b0b58da185a5b88185c9d088b60a21b60298201527f22696d616765223a22646174613a696d6167652f7376672b786d6c3b626173656035820152620d8d0b60ea1b60558201528451611e7d8160588401602089016119a9565b6009818301019150507f222c202261747472696275746573223a5b7b2274726169745f74797065223a22604f8201526e21b0b9321116113b30b63ab2911d1160891b606f820152611ee4611ed4607e830186611d8a565b63227d5d7d60e01b815260040190565b9695505050505050565b7f646174613a6170706c69636174696f6e2f6a736f6e3b6261736536342c000000815260008251611f2681601d8501602087016119a9565b91909101601d0192915050565b600081611f4257611f42611cbc565b506000190190565b808201808211156105ad576105ad611cbc565b6001600160a01b0385811682528416602082015260408101839052608060608201819052600090611ee4908301846119cd565b600060208284031215611fa257600080fd5b815161105f81611976565b600060018201611fbf57611fbf611cbc565b5060010190565b600082611fd557611fd5611ce9565b50069056fe4142434445464748494a4b4c4d4e4f505152535455565758595a6162636465666768696a6b6c6d6e6f707172737475767778797a303132333435363738392b2fa264697066735822122013a0da8961c05a8c281439345303c495fe8a57ac6456c0a7759fd0d83887395564736f6c634300081e0033",
  "linkReferences": {},
  "deployedLinkReferences": {}
}